{
    "_format": "hh-sol-artifact-1",
    "contractName": "ArnoldMart",
    "sourceName": "contracts/ArnoldMart.sol",
    "abi": [
        {
            "inputs": [],
            "stateMutability": "nonpayable",
            "type": "constructor"
        },
        {
            "anonymous": false,
            "inputs": [
                {
                    "indexed": false,
                    "internalType": "address",
                    "name": "buyer",
                    "type": "address"
                },
                {
                    "indexed": false,
                    "internalType": "string",
                    "name": "ticketId",
                    "type": "string"
                },
                {
                    "indexed": false,
                    "internalType": "uint256",
                    "name": "price",
                    "type": "uint256"
                }
            ],
            "name": "Sold",
            "type": "event"
        },
        {
            "inputs": [
                {
                    "internalType": "string",
                    "name": "id",
                    "type": "string"
                }
            ],
            "name": "makeSale",
            "outputs": [],
            "stateMutability": "payable",
            "type": "function"
        }
    ],
    "bytecode": "0x608060405273bda5747bfd65f08deb54cb465eb87d40e51b197e600160006101000a81548173ffffffffffffffffffffffffffffffffffffffff021916908373ffffffffffffffffffffffffffffffffffffffff16021790555034801561006557600080fd5b50336000806101000a81548173ffffffffffffffffffffffffffffffffffffffff021916908373ffffffffffffffffffffffffffffffffffffffff1602179055506106f0806100b56000396000f3fe60806040526004361061001e5760003560e01c8063065aaec214610023575b600080fd5b61003d600480360381019061003891906103cf565b61003f565b005b60405180608001604052808281526020013373ffffffffffffffffffffffffffffffffffffffff168152602001348152602001600115158152506003826040516100899190610498565b908152602001604051809103902060008201518160000190805190602001906100b39291906102c4565b5060208201518160010160006101000a81548173ffffffffffffffffffffffffffffffffffffffff021916908373ffffffffffffffffffffffffffffffffffffffff1602179055506040820151816002015560608201518160030160006101000a81548160ff021916908315150217905550905050600260405180608001604052808381526020013373ffffffffffffffffffffffffffffffffffffffff16815260200134815260200160011515815250908060018154018082558091505060019003906000526020600020906004020160009091909190915060008201518160000190805190602001906101a99291906102c4565b5060208201518160010160006101000a81548173ffffffffffffffffffffffffffffffffffffffff021916908373ffffffffffffffffffffffffffffffffffffffff1602179055506040820151816002015560608201518160030160006101000a81548160ff0219169083151502179055505050600160009054906101000a900473ffffffffffffffffffffffffffffffffffffffff1673ffffffffffffffffffffffffffffffffffffffff166108fc349081150290604051600060405180830381858888f19350505050158015610285573d6000803e3d6000fd5b507fed2414142d59d04ed91abd73c984728a72e7835021366ac82c7c86e84019a96f3382346040516102b9939291906104af565b60405180910390a150565b8280546102d0906105e8565b90600052602060002090601f0160209004810192826102f25760008555610339565b82601f1061030b57805160ff1916838001178555610339565b82800160010185558215610339579182015b8281111561033857825182559160200191906001019061031d565b5b509050610346919061034a565b5090565b5b8082111561036357600081600090555060010161034b565b5090565b600061037a61037584610512565b6104ed565b90508281526020810184848401111561039257600080fd5b61039d8482856105a6565b509392505050565b600082601f8301126103b657600080fd5b81356103c6848260208601610367565b91505092915050565b6000602082840312156103e157600080fd5b600082013567ffffffffffffffff8111156103fb57600080fd5b610407848285016103a5565b91505092915050565b6104198161056a565b82525050565b600061042a82610543565b610434818561054e565b93506104448185602086016105b5565b61044d816106a9565b840191505092915050565b600061046382610543565b61046d818561055f565b935061047d8185602086016105b5565b80840191505092915050565b6104928161059c565b82525050565b60006104a48284610458565b915081905092915050565b60006060820190506104c46000830186610410565b81810360208301526104d6818561041f565b90506104e56040830184610489565b949350505050565b60006104f7610508565b9050610503828261061a565b919050565b6000604051905090565b600067ffffffffffffffff82111561052d5761052c61067a565b5b610536826106a9565b9050602081019050919050565b600081519050919050565b600082825260208201905092915050565b600081905092915050565b60006105758261057c565b9050919050565b600073ffffffffffffffffffffffffffffffffffffffff82169050919050565b6000819050919050565b82818337600083830152505050565b60005b838110156105d35780820151818401526020810190506105b8565b838111156105e2576000848401525b50505050565b6000600282049050600182168061060057607f821691505b602082108114156106145761061361064b565b5b50919050565b610623826106a9565b810181811067ffffffffffffffff821117156106425761064161067a565b5b80604052505050565b7f4e487b7100000000000000000000000000000000000000000000000000000000600052602260045260246000fd5b7f4e487b7100000000000000000000000000000000000000000000000000000000600052604160045260246000fd5b6000601f19601f830116905091905056fea26469706673582212202fac060265e4fb2a656f6638a9780b337ca4e43a57f93eb7c8fc5060225e172464736f6c63430008030033",
    "linkReferences": {},
    "deployedLinkReferences": {}
}